{
  "contractName": "FarmChain",
  "abi": [
    {
      "inputs": [
        {
          "internalType": "address[]",
          "name": "officers",
          "type": "address[]"
        }
      ],
      "stateMutability": "nonpayable",
      "type": "constructor"
    },
    {
      "anonymous": false,
      "inputs": [
        {
          "indexed": true,
          "internalType": "string",
          "name": "farmerName",
          "type": "string"
        },
        {
          "indexed": false,
          "internalType": "uint256",
          "name": "amount",
          "type": "uint256"
        }
      ],
      "name": "TransactionAdded",
      "type": "event"
    },
    {
      "anonymous": false,
      "inputs": [
        {
          "indexed": true,
          "internalType": "address",
          "name": "officer",
          "type": "address"
        },
        {
          "indexed": true,
          "internalType": "string",
          "name": "farmerName",
          "type": "string"
        },
        {
          "indexed": false,
          "internalType": "uint256",
          "name": "amount",
          "type": "uint256"
        }
      ],
      "name": "TransactionApproved",
      "type": "event"
    },
    {
      "inputs": [
        {
          "internalType": "address",
          "name": "officer",
          "type": "address"
        }
      ],
      "name": "addOfficer",
      "outputs": [],
      "stateMutability": "nonpayable",
      "type": "function"
    },
    {
      "inputs": [
        {
          "internalType": "address",
          "name": "officer",
          "type": "address"
        }
      ],
      "name": "removeOfficer",
      "outputs": [],
      "stateMutability": "nonpayable",
      "type": "function"
    },
    {
      "inputs": [
        {
          "internalType": "string",
          "name": "farmerName",
          "type": "string"
        },
        {
          "internalType": "uint256",
          "name": "amount",
          "type": "uint256"
        }
      ],
      "name": "addTransaction",
      "outputs": [],
      "stateMutability": "nonpayable",
      "type": "function"
    },
    {
      "inputs": [
        {
          "internalType": "address",
          "name": "farmerAddress",
          "type": "address"
        },
        {
          "internalType": "uint256",
          "name": "index",
          "type": "uint256"
        }
      ],
      "name": "approveTransaction",
      "outputs": [],
      "stateMutability": "nonpayable",
      "type": "function"
    },
    {
      "inputs": [
        {
          "internalType": "address",
          "name": "farmerAddress",
          "type": "address"
        }
      ],
      "name": "getTransactionCount",
      "outputs": [
        {
          "internalType": "uint256",
          "name": "",
          "type": "uint256"
        }
      ],
      "stateMutability": "view",
      "type": "function"
    },
    {
      "inputs": [
        {
          "internalType": "address",
          "name": "farmerAddress",
          "type": "address"
        },
        {
          "internalType": "uint256",
          "name": "index",
          "type": "uint256"
        }
      ],
      "name": "getTransaction",
      "outputs": [
        {
          "internalType": "string",
          "name": "",
          "type": "string"
        },
        {
          "internalType": "uint256",
          "name": "",
          "type": "uint256"
        },
        {
          "internalType": "bool",
          "name": "",
          "type": "bool"
        }
      ],
      "stateMutability": "view",
      "type": "function"
    },
    {
      "inputs": [
        {
          "internalType": "address",
          "name": "farmerAddress",
          "type": "address"
        }
      ],
      "name": "getTransactionsByFarmer",
      "outputs": [
        {
          "components": [
            {
              "internalType": "string",
              "name": "farmerName",
              "type": "string"
            },
            {
              "internalType": "uint256",
              "name": "amount",
              "type": "uint256"
            },
            {
              "internalType": "bool",
              "name": "approved",
              "type": "bool"
            }
          ],
          "internalType": "struct FarmChain.Transaction[]",
          "name": "",
          "type": "tuple[]"
        }
      ],
      "stateMutability": "view",
      "type": "function"
    }
  ],
  "bytecode": "0x60806040523480156200001157600080fd5b506040516200180c3803806200180c8339818101604052810190620000379190620002c4565b60005b8151811015620000ce5760016000808484815181106200005f576200005e62000315565b5b602002602001015173ffffffffffffffffffffffffffffffffffffffff1673ffffffffffffffffffffffffffffffffffffffff16815260200190815260200160002060006101000a81548160ff0219169083151502179055508080620000c5906200037d565b9150506200003a565b5050620003ca565b6000604051905090565b600080fd5b600080fd5b600080fd5b6000601f19601f8301169050919050565b7f4e487b7100000000000000000000000000000000000000000000000000000000600052604160045260246000fd5b6200013a82620000ef565b810181811067ffffffffffffffff821117156200015c576200015b62000100565b5b80604052505050565b600062000171620000d6565b90506200017f82826200012f565b919050565b600067ffffffffffffffff821115620001a257620001a162000100565b5b602082029050602081019050919050565b600080fd5b600073ffffffffffffffffffffffffffffffffffffffff82169050919050565b6000620001e582620001b8565b9050919050565b620001f781620001d8565b81146200020357600080fd5b50565b6000815190506200021781620001ec565b92915050565b6000620002346200022e8462000184565b62000165565b905080838252602082019050602084028301858111156200025a5762000259620001b3565b5b835b8181101562000287578062000272888262000206565b8452602084019350506020810190506200025c565b5050509392505050565b600082601f830112620002a957620002a8620000ea565b5b8151620002bb8482602086016200021d565b91505092915050565b600060208284031215620002dd57620002dc620000e0565b5b600082015167ffffffffffffffff811115620002fe57620002fd620000e5565b5b6200030c8482850162000291565b91505092915050565b7f4e487b7100000000000000000000000000000000000000000000000000000000600052603260045260246000fd5b7f4e487b7100000000000000000000000000000000000000000000000000000000600052601160045260246000fd5b6000819050919050565b60006200038a8262000373565b91507fffffffffffffffffffffffffffffffffffffffffffffffffffffffffffffffff8203620003bf57620003be62000344565b5b600182019050919050565b61143280620003da6000396000f3fe608060405234801561001057600080fd5b506004361061007d5760003560e01c80636fc148c81161005b5780636fc148c8146100ea578063719a0f8c1461011a578063a43293b414610136578063d9803cb2146101685761007d565b806323ca0cd21461008257806324aceeb4146100b257806365decc0b146100ce575b600080fd5b61009c600480360381019061009791906109db565b610184565b6040516100a99190610a21565b60405180910390f35b6100cc60048036038101906100c79190610bae565b6101d0565b005b6100e860048036038101906100e39190610c0a565b6102ef565b005b61010460048036038101906100ff91906109db565b610503565b6040516101119190610e05565b60405180910390f35b610134600480360381019061012f91906109db565b610658565b005b610150600480360381019061014b9190610c0a565b61073d565b60405161015f93929190610e80565b60405180910390f35b610182600480360381019061017d91906109db565b610884565b005b6000600160008373ffffffffffffffffffffffffffffffffffffffff1673ffffffffffffffffffffffffffffffffffffffff168152602001908152602001600020805490509050919050565b60006040518060600160405280848152602001838152602001600015158152509050600160003373ffffffffffffffffffffffffffffffffffffffff1673ffffffffffffffffffffffffffffffffffffffff168152602001908152602001600020819080600181540180825580915050600190039060005260206000209060030201600090919091909150600082015181600001908161027091906110ca565b506020820151816001015560408201518160020160006101000a81548160ff0219169083151502179055505050826040516102ab91906111d8565b60405180910390207f011aebc4947b3d31b679754dda8c8039c77ae859ecd441d4cd8a6e2029189aa4836040516102e29190610a21565b60405180910390a2505050565b6000803373ffffffffffffffffffffffffffffffffffffffff1673ffffffffffffffffffffffffffffffffffffffff16815260200190815260200160002060009054906101000a900460ff1661037a576040517f08c379a00000000000000000000000000000000000000000000000000000000081526004016103719061123b565b60405180910390fd5b6000600160008473ffffffffffffffffffffffffffffffffffffffff1673ffffffffffffffffffffffffffffffffffffffff16815260200190815260200160002082815481106103cd576103cc61125b565b5b906000526020600020906003020190506000816001015411610424576040517f08c379a000000000000000000000000000000000000000000000000000000000815260040161041b906112d6565b60405180910390fd5b8060020160009054906101000a900460ff1615610476576040517f08c379a000000000000000000000000000000000000000000000000000000000815260040161046d90611342565b60405180910390fd5b60018160020160006101000a81548160ff021916908315150217905550806000016040516104a491906113e5565b60405180910390203373ffffffffffffffffffffffffffffffffffffffff167f59fa935d99d8a8fea8dacb1316461499f19c374eeabc16e89fe5134b295d702b83600101546040516104f69190610a21565b60405180910390a3505050565b6060600160008373ffffffffffffffffffffffffffffffffffffffff1673ffffffffffffffffffffffffffffffffffffffff168152602001908152602001600020805480602002602001604051908101604052809291908181526020016000905b8282101561064d578382906000526020600020906003020160405180606001604052908160008201805461059790610eed565b80601f01602080910402602001604051908101604052809291908181526020018280546105c390610eed565b80156106105780601f106105e557610100808354040283529160200191610610565b820191906000526020600020905b8154815290600101906020018083116105f357829003601f168201915b50505050508152602001600182015481526020016002820160009054906101000a900460ff16151515158152505081526020019060010190610564565b505050509050919050565b6000803373ffffffffffffffffffffffffffffffffffffffff1673ffffffffffffffffffffffffffffffffffffffff16815260200190815260200160002060009054906101000a900460ff166106e3576040517f08c379a00000000000000000000000000000000000000000000000000000000081526004016106da9061123b565b60405180910390fd5b60008060008373ffffffffffffffffffffffffffffffffffffffff1673ffffffffffffffffffffffffffffffffffffffff16815260200190815260200160002060006101000a81548160ff02191690831515021790555050565b60606000806000600160008773ffffffffffffffffffffffffffffffffffffffff1673ffffffffffffffffffffffffffffffffffffffff16815260200190815260200160002085815481106107955761079461125b565b5b90600052602060002090600302016040518060600160405290816000820180546107be90610eed565b80601f01602080910402602001604051908101604052809291908181526020018280546107ea90610eed565b80156108375780601f1061080c57610100808354040283529160200191610837565b820191906000526020600020905b81548152906001019060200180831161081a57829003601f168201915b50505050508152602001600182015481526020016002820160009054906101000a900460ff1615151515815250509050806000015181602001518260400151935093509350509250925092565b6000803373ffffffffffffffffffffffffffffffffffffffff1673ffffffffffffffffffffffffffffffffffffffff16815260200190815260200160002060009054906101000a900460ff1661090f576040517f08c379a00000000000000000000000000000000000000000000000000000000081526004016109069061123b565b60405180910390fd5b60016000808373ffffffffffffffffffffffffffffffffffffffff1673ffffffffffffffffffffffffffffffffffffffff16815260200190815260200160002060006101000a81548160ff02191690831515021790555050565b6000604051905090565b600080fd5b600080fd5b600073ffffffffffffffffffffffffffffffffffffffff82169050919050565b60006109a88261097d565b9050919050565b6109b88161099d565b81146109c357600080fd5b50565b6000813590506109d5816109af565b92915050565b6000602082840312156109f1576109f0610973565b5b60006109ff848285016109c6565b91505092915050565b6000819050919050565b610a1b81610a08565b82525050565b6000602082019050610a366000830184610a12565b92915050565b600080fd5b600080fd5b6000601f19601f8301169050919050565b7f4e487b7100000000000000000000000000000000000000000000000000000000600052604160045260246000fd5b610a8f82610a46565b810181811067ffffffffffffffff82111715610aae57610aad610a57565b5b80604052505050565b6000610ac1610969565b9050610acd8282610a86565b919050565b600067ffffffffffffffff821115610aed57610aec610a57565b5b610af682610a46565b9050602081019050919050565b82818337600083830152505050565b6000610b25610b2084610ad2565b610ab7565b905082815260208101848484011115610b4157610b40610a41565b5b610b4c848285610b03565b509392505050565b600082601f830112610b6957610b68610a3c565b5b8135610b79848260208601610b12565b91505092915050565b610b8b81610a08565b8114610b9657600080fd5b50565b600081359050610ba881610b82565b92915050565b60008060408385031215610bc557610bc4610973565b5b600083013567ffffffffffffffff811115610be357610be2610978565b5b610bef85828601610b54565b9250506020610c0085828601610b99565b9150509250929050565b60008060408385031215610c2157610c20610973565b5b6000610c2f858286016109c6565b9250506020610c4085828601610b99565b9150509250929050565b600081519050919050565b600082825260208201905092915050565b6000819050602082019050919050565b600081519050919050565b600082825260208201905092915050565b60005b83811015610cb0578082015181840152602081019050610c95565b60008484015250505050565b6000610cc782610c76565b610cd18185610c81565b9350610ce1818560208601610c92565b610cea81610a46565b840191505092915050565b610cfe81610a08565b82525050565b60008115159050919050565b610d1981610d04565b82525050565b60006060830160008301518482036000860152610d3c8282610cbc565b9150506020830151610d516020860182610cf5565b506040830151610d646040860182610d10565b508091505092915050565b6000610d7b8383610d1f565b905092915050565b6000602082019050919050565b6000610d9b82610c4a565b610da58185610c55565b935083602082028501610db785610c66565b8060005b85811015610df35784840389528151610dd48582610d6f565b9450610ddf83610d83565b925060208a01995050600181019050610dbb565b50829750879550505050505092915050565b60006020820190508181036000830152610e1f8184610d90565b905092915050565b600082825260208201905092915050565b6000610e4382610c76565b610e4d8185610e27565b9350610e5d818560208601610c92565b610e6681610a46565b840191505092915050565b610e7a81610d04565b82525050565b60006060820190508181036000830152610e9a8186610e38565b9050610ea96020830185610a12565b610eb66040830184610e71565b949350505050565b7f4e487b7100000000000000000000000000000000000000000000000000000000600052602260045260246000fd5b60006002820490506001821680610f0557607f821691505b602082108103610f1857610f17610ebe565b5b50919050565b60008190508160005260206000209050919050565b60006020601f8301049050919050565b600082821b905092915050565b600060088302610f807fffffffffffffffffffffffffffffffffffffffffffffffffffffffffffffffff82610f43565b610f8a8683610f43565b95508019841693508086168417925050509392505050565b6000819050919050565b6000610fc7610fc2610fbd84610a08565b610fa2565b610a08565b9050919050565b6000819050919050565b610fe183610fac565b610ff5610fed82610fce565b848454610f50565b825550505050565b600090565b61100a610ffd565b611015818484610fd8565b505050565b5b818110156110395761102e600082611002565b60018101905061101b565b5050565b601f82111561107e5761104f81610f1e565b61105884610f33565b81016020851015611067578190505b61107b61107385610f33565b83018261101a565b50505b505050565b600082821c905092915050565b60006110a160001984600802611083565b1980831691505092915050565b60006110ba8383611090565b9150826002028217905092915050565b6110d382610c76565b67ffffffffffffffff8111156110ec576110eb610a57565b5b6110f68254610eed565b61110182828561103d565b600060209050601f8311600181146111345760008415611122578287015190505b61112c85826110ae565b865550611194565b601f19841661114286610f1e565b60005b8281101561116a57848901518255600182019150602085019450602081019050611145565b868310156111875784890151611183601f891682611090565b8355505b6001600288020188555050505b505050505050565b600081905092915050565b60006111b282610c76565b6111bc818561119c565b93506111cc818560208601610c92565b80840191505092915050565b60006111e482846111a7565b915081905092915050565b7f556e617574686f72697a65640000000000000000000000000000000000000000600082015250565b6000611225600c83610e27565b9150611230826111ef565b602082019050919050565b6000602082019050818103600083015261125481611218565b9050919050565b7f4e487b7100000000000000000000000000000000000000000000000000000000600052603260045260246000fd5b7f5472616e73616374696f6e20646f6573206e6f74206578697374000000000000600082015250565b60006112c0601a83610e27565b91506112cb8261128a565b602082019050919050565b600060208201905081810360008301526112ef816112b3565b9050919050565b7f5472616e73616374696f6e20616c726561647920617070726f76656400000000600082015250565b600061132c601c83610e27565b9150611337826112f6565b602082019050919050565b6000602082019050818103600083015261135b8161131f565b9050919050565b6000815461136f81610eed565b611379818661119c565b9450600182166000811461139457600181146113a9576113dc565b60ff19831686528115158202860193506113dc565b6113b285610f1e565b60005b838110156113d4578154818901526001820191506020810190506113b5565b838801955050505b50505092915050565b60006113f18284611362565b91508190509291505056fea2646970667358221220bf8d38bf700743782daf7d0accac0773e05f2f0f8f00466e95beeba74f096a4564736f6c63430008130033",
  "immutableReferences": {},
  "source": "// SPDX-License-Identifier: MIT\r\npragma solidity ^0.8.19;\r\ncontract FarmChain {\r\n\r\n    struct Transaction {\r\n        string farmerName;\r\n        uint256 amount;\r\n        bool approved;\r\n    }\r\n\r\n    mapping(address => bool) private authorizedOfficers;\r\n    mapping(address => Transaction[]) private transactions;\r\n\r\n    event TransactionAdded(string indexed farmerName, uint256 amount);\r\n    event TransactionApproved(address indexed officer, string indexed farmerName, uint256 amount);\r\n\r\n    constructor(address[] memory officers) {\r\n        for (uint i = 0; i < officers.length; i++) {\r\n            authorizedOfficers[officers[i]] = true;\r\n        }\r\n    }\r\n\r\n    modifier onlyAuthorizedOfficer() {\r\n        require(authorizedOfficers[msg.sender], \"Unauthorized\");\r\n        _;\r\n    }\r\n\r\n    function addOfficer(address officer) public onlyAuthorizedOfficer {\r\n        authorizedOfficers[officer] = true;\r\n    }\r\n\r\n    function removeOfficer(address officer) public onlyAuthorizedOfficer {\r\n        authorizedOfficers[officer] = false;\r\n    }\r\n\r\n    function addTransaction(string memory farmerName, uint256 amount) public {\r\n        Transaction memory transaction = Transaction(farmerName, amount, false);\r\n        transactions[msg.sender].push(transaction);\r\n        emit TransactionAdded(farmerName, amount);\r\n    }\r\n\r\n    function approveTransaction(address farmerAddress, uint256 index) public onlyAuthorizedOfficer {\r\n        Transaction storage transaction = transactions[farmerAddress][index];\r\n        require(transaction.amount > 0, \"Transaction does not exist\");\r\n        require(!transaction.approved, \"Transaction already approved\");\r\n        transaction.approved = true;\r\n        emit TransactionApproved(msg.sender, transaction.farmerName, transaction.amount);\r\n    }\r\n\r\n    function getTransactionCount(address farmerAddress) public view returns (uint256) {\r\n        return transactions[farmerAddress].length;\r\n    }\r\n\r\n    function getTransaction(address farmerAddress, uint256 index) public view returns (string memory, uint256, bool) {\r\n        Transaction memory transaction = transactions[farmerAddress][index];\r\n        return (transaction.farmerName, transaction.amount, transaction.approved);\r\n    }\r\n\r\n    function getTransactionsByFarmer(address farmerAddress) public view returns (Transaction[] memory) {\r\n        return transactions[farmerAddress];\r\n    }\r\n}\r\n",
  "sourcePath": "D:\\Trufflechain\\contracts\\FarmChain.sol",
  "compiler": {
    "name": "solc",
    "version": "0.8.19+commit.7dd6d404.Emscripten.clang"
  },
  "schemaVersion": "3.4.13",
  "updatedAt": "2023-04-16T17:38:29.058Z",
  "devdoc": {
    "kind": "dev",
    "methods": {},
    "version": 1
  },
  "userdoc": {
    "kind": "user",
    "methods": {},
    "version": 1
  }
}